{
  "contractName": "WethToken",
  "abi": [
    {
      "constant": true,
      "inputs": [],
      "name": "totalSupply",
      "outputs": [
        {
          "name": "",
          "type": "uint256"
        }
      ],
      "payable": false,
      "stateMutability": "view",
      "type": "function"
    },
    {
      "inputs": [],
      "payable": false,
      "stateMutability": "nonpayable",
      "type": "constructor"
    }
  ],
  "bytecode": "0x608060405234801561001057600080fd5b506402540be400600081905550609e8061002b6000396000f300608060405260043610603f576000357c0100000000000000000000000000000000000000000000000000000000900463ffffffff16806318160ddd146044575b600080fd5b348015604f57600080fd5b506056606c565b6040518082815260200191505060405180910390f35b600054815600a165627a7a72305820b873539bca56ffbdf572f5fa52b16d35fd0446631202d9bde35fb92769dde63c0029",
  "source": "pragma solidity ^0.4.2;\r\n\r\ncontract WethToken {\r\n    //constructor\r\n    // set the total number of tokens\r\n    // read the total number of tokens\r\n    uint256 public totalSupply;\r\n\r\n    function WethToken() public {\r\n        totalSupply = 10000000000;\r\n    }\r\n}",
  "sourcePath": "C:\\Users\\DELL\\Desktop\\election\\ico\\contracts\\WethToken.sol",
  "compiler": {
    "name": "solc",
    "version": "0.4.24+commit.e67f0147.Emscripten.clang"
  },
  "schemaVersion": "2.0.1",
  "updatedAt": "2018-11-25T17:43:32.580Z"
}